:100000000C9448090C9491090C9491090C94910951
:100010000C9491090C9491090C9491090C949109F8
:100020000C9491090C9491090C94512A0C94282B4E
:100030000C945A210C9491090C9491090C949109F7
:100040000C9491090C9491090C9491090C949109C8
:100050000C9491090C94BB210C9491090C94910976
:100060000C9491090C9491090C9491090C949109A8
:100070000C9491090C9491090C9491090C94910998
:100080000C9491090C9491090C9491090C94910988
:100090000C9491090C949109A90053003800250291
:1000A00029003A003B003C003D003E003F0040007C
:1000B0004100420043004400450049004C00AA00B2
:1000C0005F0060006100460035001E001F00200038
:1000D00021002200230024002500260027002D00F7
:1000E0002E002A0057005C005D005E004C002B00D3
:1000F00014001A000800150017001C0018000C005E
:10010000120013002F0030000000560059005A0062
:100110005B002B00390004001600070009000A00EC
:100120000B000D000E000F003300340020022800E9
:1001300000006200000052000070E10031001D006C
:100140001B000600190005001100100036003700E2
:100150003800E100000058000000500051004F003E
:10016000E000E300E2000000000000002C000000BE
:1001700000000000260233022F02E000010001000F
:100180000100010001000100010001000100010067
:100190000100010001000100010001000100010057
:1001A0000100010001000100010001000100010047
:1001B0000100010001000100010001000100010037
:1001C0000100010001000100010001000100010027
:1001D0000100010001000100010001000100010017
:1001E0000100010001000100010001000000010008
:1001F00001000100010001000100010001000100F7
:1002000001000100010001000100010001000100E6
:1002100001000100000001000000010001000100D8
:1002200001000100010001000100010001000100C6
:1002300001000100010001000000010000000100B8
:1002400001000100010001000100000000000000A9
:100250000100000000000000010001000100010099
:100260000100010001000100010001000100010086
:100270000100010001000100010001000100010076
:100280000100010001000100010001000100010066
:100290000100010001000100010001000100010056
:1002A0000100010001000100010001000100010046
:1002B0000100010001000100010001000100010036
:1002C0000100010001000100010001000100010026
:1002D0000000010001000100010001000100010017
:1002E0000100010001000100010001000100010006
:1002F00001000100010001000000010000000100F8
:1003000001000100010001000100010001000100E5
:1003100001000100010001000100010000000100D6
:1003200000000100010001000100010001000000C7
:1003300000000000010000000000000001000100BA
:1003400001000100010001000100010001000100A5
:100350000100010001000100010001000100010095
:100360000100010001000100010001000100010085
:100370000100010001000100010001000100010075
:100380000100010001000100010001000100010065
:100390000100010001000100010001000100010055
:1003A0000100010001000100010001000100010045
:1003B0000100010000000100010001000100010036
:1003C0000100010001000100010001000100010025
:1003D0000100010001000100010001000000010016
:1003E0000000010001000100010001000100010006
:1003F00001000100010001000100010001000100F5
:1004000000000100000001000100010001000100E6
:1004100001000000000000000100000000000000DA
:1004200001000100010001000100010001000100C4
:1004300001000100010001000100010001000100B4
:1004400001000100010001000100010001000100A4
:100450000100010001000100010001000100010094
:100460000100010001000100010001000100010084
:100470000100010001000100010001000100010074
:100480000100010001000100010001000100010064
:100490000100010001000100000001000100010055
:1004A0000100010001000100010001000100010044
:1004B0000100010001000100010001000100010034
:1004C0000000010000000100010001000100010026
:1004D0000100010001000100010001000100010014
:1004E0000100010000000100000001000100010006
:1004F00001000100010000000000000001000000F8
:1005000000000000010001000100010001000100E5
:1005100001000100010001000100010001000100D3
:1005200001000100010001000100010001000100C3
:1005300001000100010001000100010001000100B3
:1005400001000100010001000100010001000100A3
:100550000100010001000100010001000100010093
:100560000100010001000100010001000100010083
:100570000100010001000100010001000000010074
:100580000100010001000100010001000100010063
:100590000100010001000100010001000100010053
:1005A0000100010000000100000001000100010045
:1005B0000100010001000100010001000100010033
:1005C0000100010001000100000001000000010025
:1005D0000100010001000100010000000000000016
:1005E0000100000000000000010001000100010006
:1005F00001000100010001000100010001000100F3
:1006000001000100010001000100010001000100E2
:1006100001000100010001000100010001000100D2
:1006200001000100010001000100010001000100C2
:1006300001000100010001000100010001000100B2
:1006400001000100010001000100010001000100A2
:100650000100010001000100010001000100010092
:100660000000010001000100010001000100010083
:100670000100010001000100010001000100010072
:100680000100010001000100000001000000010064
:100690000100010001000100010001000100010052
:1006A0000100010001000100010001000000010043
:1006B0000000010001000100010001000100000034
:1006C0000000000001000000000000000100010027
:1006D0000100010001000100010001000100010012
:1006E0000100010001000100010001000100010002
:1006F00001000100010001000100010001000100F2
:1007000001000100010001000100010001000100E1
:1007100001000100010001000100010001000100D1
:1007200001000100010001000100010001000100C1
:1007300001000100010001000100010001000100B1
:1007400001000100000001000100010001000100A2
:100750000100010001000100010001000100010091
:100760000100010001000100010001000000010082
:100770000000010001000100010001000100010072
:100780000100010001000100010001000100010061
:100790000000010000000100010001000100010053
:1007A0000100000000000000010000000000000047
:1007B0000100010001000100010001000100010031
:1007C0000100010001000100010001000100010021
:1007D0000100010001000100010001000100010011
:1007E0000100010001000100010001000100010001
:1007F00001000100010001000100010001000100F1
:1008000001000100010001000100010001000100E0
:1008100001000100010001000100010001000100D0
:1008200001000100010001000000010001000100C1
:1008300001000100010001000100010001000100B0
:1008400001000100010001000100010001000100A0
:100850000000010000000100010001000100010092
:100860000100010001000100010001000100010080
:100870000100010000000100000001000100010072
:100880000100010001000000000000000100000064
:100890000000000001000100010001000100010052
:1008A0000100010001000100010001000100010040
:1008B0000100010001000100010001000100010030
:1008C0000100010001000100010001000100010020
:1008D0000100010001000100010001000100010010
:1008E0000100010001000100010001000100010000
:1008F00001000100010001000100010001000100F0
:1009000001000100010001000100010000000100E0
:1009100001000100010001000100010001000100CF
:1009200001000100010001000100010001000100BF
:1009300001000100000001000000010001000100B1
:10094000010001000100010001000100010001009F
:100950000100010001000100000001000000010091
:100960000100010001000100010000000000000082
:100970000100000000000000010001000100010072
:10098000010001000100010001000100010001005F
:10099000010001000100010001000100010001004F
:1009A000010001000100010001000100010001003F
:1009B000010001000100010001000100010001002F
:1009C000010001000100010001000100010001001F
:1009D000010001000100010001000100010001000F
:1009E00001000100010001000100010001000100FF
:1009F00000000100010001000100010001000100F0
:100A000001000100010001000100010001000100DE
:100A100001000100010001000000010000000100D0
:100A200001000100010001000100010001000100BE
:100A300001000100010001000100010000000100AF
:100A400000000100010001000100010001000000A0
:100A50000000000001000000000000000100010093
:100A6000010001000100010001000100010001007E
:100A7000010001000100010001000100010001006E
:100A8000010001000100010001000100010001005E
:100A9000010001000100010001000100010001004E
:100AA000010001000100010001000100010001003E
:100AB000010001000100010001000100010001002E
:100AC000010001000100010001000100010001001E
:100AD000010001000000010001000100010001000F
:100AE00001000100010001000100010001000100FE
:100AF00001000100010001000100010000000100EF
:100B000000000100010001000100010001000100DE
:100B100001000100010001000100010001000100CD
:100B200000000100000001000100010001000100BF
:100B300001000000000000000100000000000000B3
:100B4000010001000100010001000100010001009D
:100B5000010001000100010001000100010001008D
:100B6000010001000100010001000100010001007D
:100B7000010001000100010001000100010001006D
:100B8000010001000100010001000100010001005D
:100B9000010001000100010001000100010001004D
:100BA000010001000100010001000100010001003D
:100BB000010001000100010000000100010001002E
:100BC000010001000100010001000100010001001D
:100BD000010001000100010001000100010001000D
:100BE00000000100000001000100010001000100FF
:100BF00001000100010001000100010001000100ED
:100C000001000100000001000000010001000100DE
:100C100001000100010000000000000001000000D0
:100C200000000000010001000100010001000100BE
:100C300001000100010001000100010001000100AC
:100C4000010001000100010001000100010001009C
:100C5000010001000100010001000100010001008C
:100C6000010001000100010001000100010001007C
:100C7000010001000100010001000100010001006C
:100C8000010001000100010001000100010001005C
:100C9000010001000100010001000100000001004D
:100CA000010001000100010001000100010001003C
:100CB000010001000100010001000100010001002C
:100CC000010001000000010000000100010001001E
:100CD000010001000100010001000100010001000C
:100CE00001000100010001000000010000000100FE
:100CF00001000100010001000100000000000000EF
:100D000001000000000000000100010001000100DE
:100D100001000100010001000100010001000100CB
:100D200001000100010001000100010001000100BB
:100D300001000100010001000100010001000100AB
:100D4000010001000100010001000100010001009B
:100D5000010001000100010001000100010001008B
:100D6000010001000100010001000100010001007B
:100D7000010001000100010001000100010001006B
:100D8000000001000100010001000100010001005C
:100D9000010001000100010001000100010001004B
:100DA000010001000100010000000100000001003D
:100DB000010001000100010001000100010001002B
:100DC000010001000100010001000100000001001C
:100DD000000001000100010001000100010000000D
:100DE0000000000001000000000000000100010000
:100DF00001000100010001000100010001000100EB
:100E000001000100010001000100010001000100DA
:100E100001000100010001000100010001000100CA
:100E200001000100010001000100010001000100BA
:100E300001000100010001000100010001000100AA
:100E4000010001000100010001000100010001009A
:100E5000010001000100010001000100010001008A
:100E6000010001000000010001000100010001007B
:100E7000010001000100010001000100010001006A
:100E8000010001000100010001000100000001005B
:100E9000000001000100010001000100010001004B
:100EA000010001000100010001000100010001003A
:100EB000000001000000010001000100010001002C
:100EC0000100000000000000010000000000000020
:100ED0000100010001000100643214643214783C06
:100EE0001E1E140A05000000000101010202030495
:100EF00005050607090A0B0C0E0F11121415171918
:100F00001B1D1F212325282A2C2F313436393B3E27
:100F1000414346494C4F5255585A5D6164676A6D6A
:100F2000707376797C7F8386898C8F9295989B9E4F
:100F3000A2A5A7AAADB0B3B6B9BCBEC1C4C6C9CB41
:100F4000CED0D3D5D7DADCDEE0E2E4E6E8EAEBEDBA
:100F5000EEF0F1F3F4F5F6F8F9FAFAFBFCFDFDFE1C
:100F6000FEFEFFFFFFFFFFFFFFFEFEFEFDFDFCFBA1
:100F7000FAFAF9F8F6F5F4F3F1F0EEEDEBEAE8E65B
:100F8000E4E2E0DEDCDAD7D5D3D0CECBC9C6C4C12B
:100F9000BEBCB9B6B3B0ADAAA7A5A29E9B989592C8
:100FA0008F8C898683807C797673706D6A676461C3
:100FB0005D5A5855524F4C494643413E3B393634B1
:100FC000312F2C2A282523211F1D1B191715141218
:100FD000110F0E0C0B0A0907060505040302020196
:100FE00001010000000000000000010101010101F9
:100FF00001010102020202020202020203030303D0
:10100000030303030404040404040505050505069D
:101010000606060607070707080808080909090A57
:101020000A0A0A0B0B0B0C0C0C0D0D0D0E0E0F0FFC
:101030000F10101111111212131314141515161686
:101040001717181819191A1A1B1C1C1D1D1E1F1FF3
:1010500020202122222324252526272728292A2B40
:101060002B2C2D2E2F2F3031323334353636373866
:10107000393A3B3C3D3E3F40414243444647484964
:101080004A4B4C4D4F50515253555657585A5B5C32
:101090005E5F606263646667696A6C6D6E707173CF
:1010A000747678797B7C7E8081838486888A8B8D38
:1010B0008F91929496989A9B9D9FA1A3A5A7A9AB67
:1010C000ADAFB1B3B5B7B9BBBDBFC1C4C6C8CACC5B
:1010D000CFD1D3D6D8DADCDFE1E4E6E8EBEDF0F20D
:1010E000F5F7FAFCFF12036B006500790062006FF0
:1010F000006100720064000000160371006D006B57
:10110000006200750069006C0064006500720000F8
:10111000000403090409026D00040100A0FA090497
:10112000000001030101000921110100012240001A
:101130000705810308000A090401000103010200F8
:10114000092111010001224D000705820308000A50
:10115000090402000103000000092111010001221D
:1011600036000705830308000A0904030001030091
:101170000000092111010001223900070584032024
:1011800000011201100100000008EDFE6060010086
:101190000102000105010906A101050719E029E77F
:1011A0001500250195087501810205081901290519
:1011B00095057501910295017503910105071900C7
:1011C00029F71500250195F875018102C00501096F
:1011D00080A10185021601002603001A81002A83DE
:1011E00000751095018100C0050C0901A10185035E
:1011F000160100269C021A01002A9C027510950116
:101200008100C005010902A1010901A10005091918
:1012100001290515002501950575018102950175C6
:101220000381010501093009311581257F9502757A
:1012300008810609381581257F9501750881060505
:101240000C0A38021581257F950175088106C0C0FA
:1012500005010906A101050719E029E71500250187
:10126000950875018102950175088101050819012C
:1012700029059505750191029501750391010507F1
:10128000190029FF150026FF00950675088100C08A
:1012900011241FBECFEFD0E2DEBFCDBF04B603FEE8
:1012A00027C08091E8039091E903A091EA03B091EF
:1012B000EB038730904BA740B04BD1F41092E8037A
:1012C0001092E9031092EA031092EB0314BE84B764
:1012D000877F84BF0FB6F894A895809160008861DD
:1012E00080936000109260000FBEE0E0F0EF09957F
:1012F00011E0A0E0B1E0EEE6FDE500E00BBF02C0CA
:1013000007900D92A234B107D9F723E0A2E4B1E02F
:1013100001C01D92A83EB207E1F70E94A2270C94DB
:10132000802E0C94000090E080E0089508950895C8
:1013300081E0089580FF0BC0389A409881FF09C072
:10134000399A419882FF07C03A9A4298089538988E
:10135000F4CF3998F6CF3A98F8CF81E008950C94FD
:1013600098090E9494192FEF84E39CE0215080405B
:101370009040E1F700C000000C94DE21EF92FF9254
:101380000F931F93CF93DF937C01DC010D911C9190
:1013900011978091BD01811143C012968C918823D1
:1013A000D1F1C8010E94191FC82F682FC8010E94DF
:1013B000C21EB8018C2F0E94290BEC01B7010E94BC
:1013C000AF09882309F468C0B701CE010E94320D2D
:1013D000882309F461C0CE33B0E7DB0770F4C4336F
:1013E000E0E7DE0710F5C130F0E7DF0709F45CC085
:1013F00050F5C115D04709F44AC081E080934401FB
:1014000080934501C701DF91CF911F910F91FF900C
:10141000EF900C94AD09C8010E94F01EC82FC9CFEF
:10142000C8010E94191FB801C6CFFE01E553F0475D
:10143000D70112968C91E930F10508F040C0EE57C3
:10144000F14D0C942F2ECE01825090474397A8F671
:10145000F70182818823B1F20E94DB20811102C052
:101460000E94BA200E94F82090E09093DA038093C3
:10147000D903FE01E350F0478091D9038160E23146
:10148000F10508F047C0E557F14D0C942F2EF701F8
:10149000828181110E94B10980E0DF91CF911F917B
:1014A0000F91FF90EF900895D70112968C918823A9
:1014B00099F380916E02816080936E02EDCF882354
:1014C00059F30E94DA11E8CF882331F30E94D0113A
:1014D000E3CF882309F30E94AD10DECF8823E1F229
:1014E0000E94C510D9CF8823B9F20E94E410D4CF4E
:1014F000882391F20E94FC10CFCF882369F20E94CA
:101500001411CACF882341F20E942C11C5CF8091BB
:10151000D90382608093D9038091D9030E94FC2073
:101520000E949419B9CF8091D9038460F3CF809140
:10153000D9038860EFCF8091D9038061EBCF809190
:10154000D9038062E7CF8091D9038064E3CF809193
:10155000D9038068DFCF8091D9038C60DBCF809185
:10156000D9038E7FD7CF8091D9038D7FD3CF809140
:10157000D9038B7FCFCF8091D903877FCBCF809149
:10158000D9038F7EC7CF8091D9038F7DC3CF809140
:10159000D9038F7BBFCF8091D9038F77BBCF809149
:1015A000D903837FB7CF9091D903892F97FB87F910
:1015B0008058B0CF882361F0109244010E948A21A4
:1015C000909343018093420182E00E94F91664CF18
:1015D0008091440181110FC080914201909143019B
:1015E0000E949621883C910530F486E20E94CE1537
:1015F00086E20E94AA1682E00E9400174DCF88233F
:1016000051F0109245010E948A21909343018093EA
:10161000420180E2DACF8091450181110FC08091B3
:101620004201909143010E949621883C910530F43B
:1016300087E20E94CE1587E20E94AA1680E2DCCFE4
:101640000C94810D0C94830D0C949A090C94240B2A
:101650000895972F70E023E1929F600D711D112472
:10166000FB0192E7899FE00DF11D1124EE0FFF1F92
:10167000E856FF4F859194910895FC01EE0FFF1FEE
:10168000E852F14F8591949108950E94290B0E9490
:10169000B60C9C01811540E4940708F097C0211511
:1016A00080E3380708F0FAC0203E310508F074C026
:1016B000203C310508F0E5C0283A310588F4253A88
:1016C000310508F0E2C02130310509F477C0C901C5
:1016D0000497813A910508F471C030E020E06EC0B3
:1016E000C901885A91094597C0F7283A310509F48C
:1016F000FEC0293A310509F4FDC02A3A310509F442
:10170000FCC02B3A310509F4FBC02C3A310509F431
:10171000FAC02B3B310509F4F9C02C3B310509F423
:10172000F8C02D3A310509F4F7C0203B310509F422
:10173000F6C02E3A310509F4F5C02F3A310509F407
:10174000F4C0213B310509F4F3C0223B310509F413
:10175000F2C0233B310509F4F1C0243B310509F403
:10176000F0C0253B310509F4EFC0263B310509F4F3
:10177000EEC0273B310509F4EDC0283B310509F4E3
:10178000ECC0293B310509F4EBC02A3B310509F4D3
:10179000EAC020E034E412C0211590E2390780F459
:1017A0002F3F310509F050F4283E310538F0C901CA
:1017B000805F91093065409708F08FCFC901089587
:1017C000C9019F700E943D0B9C01F8CF8115944583
:1017D00008F041C0211583E5380708F06AC02115DB
:1017E00092E5390738F5211541E5340708F05CC06A
:1017F000211580E5380708F454C0C90134E09695F6
:1018000087953A95E1F78370422F46954695437048
:1018100090E2499FA0011124582B822F837021E070
:1018200030E002C0220F331F8A95E2F7242B352BBC
:101830003C68C4CFC9018370992741E050E002C0E1
:10184000440F551F8A95E2F72695269580E2289F3A
:1018500090011124EBCF211596E5390748F4922F1A
:10186000882721153545C8F59C01246F306AA6CF1D
:10187000C90190563F708115904108F02ECF30621B
:101880009DCFC901805C91099DCF253A310549F171
:10189000263A310549F522E830E490CF3327306C01
:1018A0008DCF3F70306A8ACF322F2227216F306A66
:1018B00085CFC9018370992741E050E002C0440FF1
:1018C000551F8A95E2F72695269580E2289F90017C
:1018D0001124242B352B3A6871CF88279F719C01E6
:1018E000CECF21E830E46ACF23E830E467CF22EEA0
:1018F00034E464CF29EE34E461CF2AEE34E45ECFE1
:1019000025EB34E45BCF26EB34E458CF23EB34E40F
:1019100055CF24EB34E452CF27EB34E44FCF2CECFB
:1019200034E44CCF2DEC34E449CF23E835E446CF02
:101930002AE835E443CF22E935E440CF24E935E411
:101940003DCF21E236E43ACF23E236E437CF24E23A
:1019500036E434CF25E236E431CF26E236E42ECF2A
:1019600027E236E42BCF2AE236E428CF803E9105E9
:1019700081F1C8F48133910509F462C048F48932D9
:10198000910509F456C08A32910509F460C00895A2
:1019900089339105B9F082389105A1F0853391051D
:1019A00009F440C00895863E910561F138F4823E05
:1019B0009105B1F0833E9105E1F00895873E9105D0
:1019C00051F108952091D9032370D9F080EE90E071
:1019D00008952091D90320FF14C089E390E0089571
:1019E0002091D90322FF0DC024FD09C083EE90E0B1
:1019F00008952091D90322FD31C024FF02C090E058
:101A000080E008952091D90323FFFBCF24FDF7CF79
:101A100087EE90E008952091D90323FFEECF86EE64
:101A200090E008952091D90325FFEBCF89E290E063
:101A300008952091D90325FFE4CF85E390E0089530
:101A40002091D90326FFDDCF8AE290E0089520910E
:101A5000D90326FFD6CF81E390E0089582EE90E08F
:101A6000089508950F931F93CF938C01FB018281FA
:101A7000811106C0C1E08C2FCF911F910F91089565
:101A8000C0915301C11125C00531104799F70E943B
:101A9000310D81E0809353010E948A21909352017D
:101AA0008093510110924601109248011092470113
:101AB00010924A011092490110924C0110924B0170
:101AC00010924E0110924D011092500110924F0150
:101AD000D2CF80915101909152010E949621883C71
:101AE000910540F680914601E82FF0E0EE0FFF1FD0
:101AF000E95BFE4F118300838F5F80934601C0E056
:101B0000BACF0C9496090C94970985B7806885BF65
:101B100085B7806885BFA7E2B1E061E070E08D9194
:101B2000E82FE295EF70F0E041A18F709B0101C0BA
:101B3000220F8A95EAF7922F9095942391A382A180
:101B4000822B82A381E0AD32B80749F7A4E1B1E06E
:101B500061E070E08D91E82FE295EF70F0E041A137
:101B60008F709B0101C0220F8A95EAF7922F909502
:101B7000942391A382A1822B82A381E0A732B8078C
:101B800049F7ECE6F1E0A4E5B1E084E891E01192D8
:101B90001192119211921D921D921D921D928E17FB
:101BA0009F07A9F70C94200B2F923F924F925F92C0
:101BB0006F927F928F929F92AF92BF92CF92DF925D
:101BC000EF92FF920F931F93CF93DF93CDB7DEB7C2
:101BD0002B970FB6F894DEBF0FBECDBF84E5282E3D
:101BE00081E0382E07E211E01E830D8338862F82B4
:101BF000C12CD12C7601C394AF81B8858D909D9076
:101C0000AD90BD90B887AF83FD01129212921292EF
:101C10001292FB87EA87AD81BE818D91BE83AD8331
:101C2000E82FE295EF70F0E091A18F7001E010E0F5
:101C300002C0000F111F8A95E2F71A830983802FD3
:101C4000892B81A382A100950987802382A310EAB2
:101C50001A95F1F724E131E03C832B8390E080E09A
:101C6000AB81BC817D90BC83AB83272D22952F70E7
:101C700030E0D90190965C90AA85BB854D915D912D
:101C80006D917C91272D2F7001E010E002C0000FB4
:101C9000111F2A95E2F79801252109F07AC09701D2
:101CA0008601082E04C0000F111F221F331F0A9443
:101CB000D2F7280139014429552966297729AA85AF
:101CC000BB854D935D936D937C9313970196833100
:101CD000910531F681A11985182311A382A1B9813B
:101CE0008B2B82A3EA85FB8580819181A281B381C0
:101CF00088169906AA06BB0649F0F1E0F093840124
:101D00000E948A2190938601809385010F81188516
:101D10000C56114009F070CF809184018823E9F0BE
:101D200080918501909186010E9496210697A8F0E6
:101D30002CE631E0F10181919191A191B1911F01C6
:101D4000F90181939193A193B1939F01FCE62F1622
:101D5000F1E03F0679F7109284010E94220B81E0A6
:101D60002B960FB6F894DEBF0FBECDBFDF91CF919B
:101D70001F910F91FF90EF90DF90CF90BF90AF90A9
:101D80009F908F907F906F905F904F903F902F909B
:101D90000895412C512C32018ECFCF93DF9300D088
:101DA00000D0CDB7DEB794E0899FF0011124E4594B
:101DB000FE4F80819181A281B381BC01CD010F9042
:101DC0000F900F900F90DF91CF91089508959C018F
:101DD000CB0161B3542F5095562361B3462B6FB797
:101DE000F894820F931F2817390711F46FBF0895D5
:101DF000F90171919F01E8E041BB000000C077FF4D
:101E000051BB770F000000C000C000C051BB00C034
:101E1000EA9591F7E8CFFC0190B3942B90BB9B011E
:101E2000220F331F620F731FCF010E94E70E87EC52
:101E300090E00197F1F700C00000089548E00C948D
:101E40000B0FAF92BF92CF92DF92EF92FF920F9360
:101E50001F93CF93DF937C01E901842F242F662306
:101E600009F43FC0C42ED12C8FEF90E0861B91095E
:101E7000489F8001499F100D1124212F812F992700
:101E8000C81AD90A9CE3A92EB12CC701B5010E943A
:101E9000072EFB01BC01C69EC001C79E900DD69EB9
:101EA000900D1124B5010E94072EE330F10509F4CD
:101EB00043C080EFE816F10468F4E130F10591F1D8
:101EC0003297A1F18CE3E816F10440F180E020E0C4
:101ED00040E007C0E430F10599F1842F861B359767
:101EE000A9F7E42FF0E0EB51F04F4491E22FF0E03E
:101EF000EB51F04F9491E82FF0E0EB51F04FE4916B
:101F000049839883EA83DF91CF911F910F91FF90CE
:101F1000EF90DF90CF90BF90AF900895812F262F44
:101F2000210FDFCF812F242F461BDBCF862F810F80
:101F3000E42F412F2E2FD5CFE42FE61B842FF9CF8E
:101F4000842F462F410FCDCF88E090E00C94402E97
:101F5000AB01BC0188E090E00C945E2ECF93DF9340
:101F600000D000D0CDB7DEB7EBE9F2E083E08083AC
:101F700011828FEF8283838380919B0290919C02D8
:101F8000A0919D02B0919E0289839A83AB83BC830A
:101F9000BC01CD010F900F900F900F90DF91CF916A
:101FA0000C94A80F80919B02E3EAF2E080FF06C048
:101FB00066E670E083EA92E00C941E0F11821082B4
:101FC0001282339683E0E53DF807C1F7F1CFE3EAEB
:101FD000F2E0818360834283339693E0E53DF90725
:101FE000C1F70C94D20FEF92FF920F931F93CF93F0
:101FF000DF9300D00F92CDB7DEB7182FE92EF62E63
:10200000042F80919B0290919C02A0919D02B0911F
:102010009E0280939F029093A002A093A102B0938E
:10202000A20280919B0280FF1FC09E012F5F3F4F45
:10203000812F9E2D0E94210F80919F0210FB87F916
:1020400080939F0216958091A0028078182BE0FA69
:1020500017F91093A002F092A1020093A2024B8103
:1020600069818A810E94E70F0F900F900F90DF9196
:10207000CF911F910F91FF90EF9008950F931F93B1
:10208000CF93DF9300D000D00F92CDB7DEB7898316
:102090009D83062F142F80919B0280FF54C0982FA0
:1020A0009E77923091F589819D810E94F30F8091F6
:1020B0009B02B981B0FB87F980939B02B695809112
:1020C0009C028078B82B8D8180FBB7F9B0939C027D
:1020D00000939D0210939E0280919B0290919C021E
:1020E000A0919D02B0919E0289839A83AB83BC83A9
:1020F000BC01CD010F900F900F900F900F90DF91CA
:10210000CF911F910F910C94A80F982F96959F73C4
:102110002EE3290F2F73243018F410919E02C7CF9D
:10212000965C9F73993018F6881F8827881F9091B6
:102130009C029D83990F982B9983AD81A7FBAA27B9
:10214000A0F9AD83B4CF0F900F900F900F900F9028
:10215000DF91CF911F910F910895EBE9F2E020817B
:10216000221F2227221F30919C02432F440F842FCD
:10217000822B37FB992790F9089668E671E00E9458
:102180001B2E438162810C943E1020919B02221FE2
:102190002227221F30919C02432F440F842F822B31
:1021A00037FB992790F98830910540F4805A9E4F6B
:1021B00040919E0260919D020C943E10089768E643
:1021C00071E00E941B2EF4CF60919D02683F90F455
:1021D000685F80919B02881F8827881F90919C02CE
:1021E000292F220F97FB992790F940919E02822B6D
:1021F0000C943E106FEFEDCF60919D02683090F02F
:10220000685080919B02881F8827881F90919C02AC
:10221000292F220F97FB992790F940919E02822B3C
:102220000C943E1060E0EDCF40919E02483F90F448
:10223000485F80919B02881F8827881F90919C028D
:10224000292F220F97FB992790F960919D02822BED
:102250000C943E104FEFEDCF40919E02483090F02D
:10226000485080919B02881F8827881F90919C026C
:10227000292F220F97FB992790F960919D02822BBD
:102280000C943E1040E0EDCFCF93DF9300D000D010
:10229000CDB7DEB790919B0290FF47C09178811136
:1022A00032C0926090939B0280919B0290919C021D
:1022B000A0919D02B0919E0289839A83AB83BC83D7
:1022C000BC01CD010E94A80F80919B02982F9E77A0
:1022D000923009F510929C01881F8827881F9091E1
:1022E0009C02292F220F97FB992790F940919E027B
:1022F00060919D02822B0F900F900F900F90DF91B5
:10230000CF910C943E10893110F09063CBCF8F7336
:10231000880F982BC7CF982F9695925C9F73963114
:10232000D8F691E090939C01D7CF0F900F900F902B
:102330000F90DF91CF91089580916E02816080931C
:102340006E0281E080939D010E94DB20811104C018
:102350000E94BA200E94AE0F0E94A40F60939B02BD
:1023600070939C0280939D0290939E026E7761F41D
:102370000E94AE0F0E94A40F60939B0270939C0278
:1023800080939D0290939E0281E080939C018091B6
:102390009B0280FF04C086958F730C9444110895AE
:1023A00080919B0286958F738F5F893108F081E061
:1023B0000C944411CF93DF9300D000D0CDB7DEB79B
:1023C00090919B02892F8E7F90FF816080939B026A
:1023D00080919B0290919C02A0919D02B0919E02DF
:1023E00089839A83AB83BC83BC01CD010E94A80F73
:1023F00080919B0280FF0AC086958F730F900F908B
:102400000F900F90DF91CF910C94441110929C018A
:102410009FEFA0E7B2E09150A040B040E1F700C0CC
:1024200000000F900F900F900F90DF91CF910C94C0
:10243000D20FCF93C82F80919A0190919B010E9457
:102440009621EC2FF0E0EF51F14FE491E8171906D7
:1024500009F010F50E948A2190939B0180939A01C4
:10246000E0919901F0E0EB51F14F449180919B0292
:10247000881F8827881F90919C02292F220F97FB85
:10248000992790F960919D02822B0E94F30F809111
:1024900099018F5F80939901CF910895CF93C82FB1
:1024A00080919701909198010E949621EC2FF0E085
:1024B000E252F14FE491E817190609F0E8F40E949E
:1024C0008A21909398018093970140919E02609198
:1024D0009D0280919501909196010E94F30F809149
:1024E000950190919601019668E671E00E94072E91
:1024F0009093960180939501CF910895EF92FF926A
:102500001F93CF93DF93182F8091930190919401A3
:102510000E949621E12FE695F0E0E252F14FE4911E
:10252000E817190609F098F50E948A219093940102
:1025300080939301D0E0C0E088E6E82EFF24F39476
:102540009E012D553D4F80919101909192018C0FEC
:102550009D1FB7010E94072E40919E0260919D022F
:102560000E94210F2396C23381E0D80749F70E94C9
:10257000D20F809191019091920110FF0EC00196AF
:10258000B7010E94072E9093920180939101DF91F1
:10259000CF911F91FF90EF9008950197F4CFAF92E4
:1025A000BF92CF92DF92EF92FF920F931F93CF9340
:1025B000DF93C82FDD24DA9480FD02C0DD24D3949C
:1025C00080918F01909190010E949621C695EC2FE9
:1025D000F0E0E552F14FE491E817190611F008F028
:1025E00053C00E948A219093900180938F01C3EA87
:1025F000D2E010E000E097E0A92EB12C19821882F9
:102600001A8287E0E82EF12CC12C80918E018C0D6E
:1026100087FD8A59082E000C990B80179107E9F461
:1026200020919E022E9DC0012F9D900D1124B50179
:102630000E941B2E462F80919B02881F8827881F8F
:1026400090919C02592F550F97FB992790F99E0165
:1026500060919D02852B0E94210FCD0C81E0E81A2C
:10266000F10899F60F5F1F4F23960636110531F6D4
:102670000E94D20F80918E0191E0D91212C0811177
:102680000EC085E680938E01DF91CF911F910F914F
:10269000FF90EF90DF90CF90BF90AF900895815062
:1026A000F1CF90E00196B8010E941B2EEBCFBF92B4
:1026B000CF92DF92EF92FF920F931F93CF93DF930E
:1026C000CDB7DEB7C253D1400FB6F894DEBF0FBE10
:1026D000CDBF182F80918C0190918D010E94962181
:1026E000E12FF0E0E852F14FE491E817190611F0FC
:1026F00008F07AC00E948A2190938D0180938C010A
:102700008E010F5F1F4FF12CE12C6801D80111964B
:102710001C9211971C9212961C92B12C9091000160
:1027200080918B01B99E800D112486360CF085E6D0
:1027300087FD80E0082E000C990B8E159F05A1F4F3
:1027400080919B02881F8827881F90919C02592F97
:10275000550F97FB992790F9980140919E0260913F
:102760009D02852B0E94210FB394B7E0BB12D6CFF8
:10277000EFEFEE1AFE0A0D5F1F4FF6E6EF16F104BB
:1027800029F623EA32E009E010E056E6E52EF12CC6
:10279000C801B7010E941B2EFC01EE0FFF1FE80FBE
:1027A000F91FEC0DFD1D8181D90111968C931197B4
:1027B00080818C93828112968C930F5F1F4F2D5FC7
:1027C0003F4F0F36110521F70E94D20F9091000163
:1027D00080918B019130E9F48A3FBCF489EF8093BA
:1027E0008B018FEF80930001CE5CDE4F0FB6F89423
:1027F000DEBF0FBECDBFDF91CF911F910F91FF9034
:10280000EF90DF90CF90BF900895815080938B011F
:10281000EBCF8D362CF08CE680938B0181E0E2CFFC
:102820008F5FF4CFCF93DF938091890190918A01DC
:102830000E949621883E934028F10E948A2190931D
:102840008A01809389018091870190918801019686
:10285000817099279093880180938701C3EAD2E021
:102860009E0140919E0260919D0290E080E00E9456
:10287000210F239683E0C53DD80791F7DF91CF91D3
:102880000C94D20FDF91CF91089580919C01882301
:1028900071F180919B0286958F739EE3980F9F73D1
:1028A000943018F482500C9419129AE3980F9F7385
:1028B000933018F486500C944E1297E3980F9F7340
:1028C000963018F489500C947E1291E3980F9F7300
:1028D000963018F48F500C94CF129BE2980F9F7390
:1028E000933018F485510C9457130C9412140895D6
:1028F0009093A3018093A2010895E091A201F09129
:10290000A301309721F00190F081E02D099480E03F
:102910000895E091A201F091A301309721F0028087
:10292000F381E02D09940895E091A201F091A301B3
:10293000309721F00480F581E02D099408952091CD
:10294000A0013091A1012817390771F09093A101DE
:102950008093A001E091A201F091A301309721F0B2
:102960000680F781E02D0994089520919E01309111
:102970009F012817390771F090939F0180939E0162
:10298000E091A201F091A301309721F00084F1853C
:10299000E02D0994089508950C94CB140E94812190
:1029A0000E94850D0E944A220C949C114F925F92C6
:1029B0006F927F929F92AF92BF92CF92DF92EF92EF
:1029C000FF920F931F93CF93DF9300D000D00F920D
:1029D000CDB7DEB70E94D40D25EAA22E21E0B22E9B
:1029E00010E000E0902E802F0E94CD0E6B017C0144
:1029F000F50141905190619071905F014C145D041C
:102A00006E047F0409F475C080916E0281FD0E94FE
:102A1000E60E90E080E04C245D246E247F24B30118
:102A2000A201082E04C076956795579547950A949C
:102A3000D2F740FF59C089839A82412C512C320130
:102A4000439404C0440C551C661C771C8A95D2F72D
:102A5000C420D520E620F72081E0CD28CE28CF283D
:102A600009F480E08B830E948A218160782F9D8306
:102A70008C8349815A816B818D810E94A515000F3D
:102A8000111F000F111FF801EB55FE4F808191813E
:102A9000A281B38184259525A625B72580839183BE
:102AA000A283B3830E94F7240E947D149091A40115
:102AB0008917B1F10E947D148093A4010F900F90AB
:102AC0000F900F900F90DF91CF911F910F91FF907A
:102AD000EF90DF90CF90BF90AF909F907F906F90DE
:102AE0005F904F900C94260B01968331910509F06D
:102AF00096CF0F5F1F4F0630110509F073CF8FEF90
:102B000089838A831B820E948A218160782F9D831A
:102B10008C8349815A816B818D810E94A515C2CF1A
:102B20000F900F900F900F900F90DF91CF911F910A
:102B30000F91FF90EF90DF90CF90BF90AF909F905C
:102B40007F906F905F904F900895CF93DF93CDB7B4
:102B5000DEB72B970FB6F894DEBF0FBECDBF4F8305
:102B6000588769877A878B871E8285E0FE013796B2
:102B7000DE01119601900D928A95E1F749815A8103
:102B80006B817C818D819E812B960FB6F894DEBF80
:102B90000FBECDBFDF91CF910C941C1C882309F48C
:102BA000D8C0823871F40E947D1481FDD2C089E3BF
:102BB0000E94C11F0E948B2089E30E94FE1F0C947B
:102BC0008B20833859F40E947D1480FDC2C083E5B8
:102BD0000E94C11F0E948B2083E5EFCF843859F4F7
:102BE0000E947D1482FDB5C087E40E94C11F0E942F
:102BF0008B2087E4E2CF9CEF980F913A18F40E9463
:102C0000C11FDDCF90E2980F983050F4877091E0AB
:102C100001C0990F8A95EAF7892F0E944220CFCFF1
:102C20009BE5980F933070F4853A31F0863A39F08D
:102C300083E890E00C949F1481E890E0FBCF82E859
:102C400090E0F8CF98E5980F953108F082C0883A67
:102C500009F440C0893A09F440C08A3A09F440C0F6
:102C60008B3A09F440C08C3A09F440C08B3B09F41C
:102C700040C08C3B09F440C08D3A09F440C0803B11
:102C800009F440C08E3A09F440C08F3A09F440C0BC
:102C9000813B09F440C0823B09F440C0833B09F406
:102CA00040C0843B09F440C0853B09F440C0863BEA
:102CB00009F440C0873B09F440C0883B09F440C098
:102CC000893B09F440C08A3B09F440C090E080E0B1
:102CD0000C94B51482EE90E0FBCF89EE90E0F8CF33
:102CE0008AEE90E0F5CF85EB90E0F2CF86EB90E0B6
:102CF000EFCF83EB90E0ECCF84EB90E0E9CF87EB74
:102D000090E0E6CF8CEC90E0E3CF8DEC90E0E0CF6C
:102D100083E891E0DDCF8AE891E0DACF82E991E0C3
:102D2000D7CF84E991E0D4CF81E292E0D1CF83E2A2
:102D300092E0CECF84E292E0CBCF85E292E0C8CFA2
:102D400086E292E0C5CF87E292E0C2CF8AE292E0CB
:102D5000BFCF0895882309F44BC0823871F40E94D4
:102D60007D1481FF45C089E30E94C11F0E948B2012
:102D700089E30E94FE1F0C948B20833859F40E9433
:102D80007D1480FF35C083E50E94C11F0E948B2007
:102D900083E5EFCF843859F40E947D1482FF28C068
:102DA00087E40E94C11F0E948B2087E4E2CF9CEF42
:102DB000980F913AF0F290E2980F983050F48770A3
:102DC00091E001C0990F8A95EAF7892F0E94482067
:102DD000D2CF9BE5980F933020F490E080E00C94E4
:102DE0009F14885A853120F490E080E00C94B5144B
:102DF0000895882321F00E9442200C948B2008958E
:102E0000882321F00E9448200C948B2008958F92F3
:102E10009F92AF92BF92DF92EF92FF920F931F9318
:102E2000CF93DF9300D000D00F92CDB7DEB77C01F7
:102E30006D837983FC01058102950F701281111158
:102E40000E9461200E94BA1FD82E882371F011239E
:102E5000A1F08D81805E883080F082E00E94A41F06
:102E60000E94BA1F91E0D82ED926E981E295EF7031
:102E7000F0E0E356F14D0C942F2ED12CF6CF0981C2
:102E80000F70F981F07F11F00295007F1123B1F0EE
:102E9000002361F08D81805E883018F02D81211132
:102EA00009C0802F0E9442200E948B208D810E94A9
:102EB000CE1515C0802F0E945320F6CF8D810E9421
:102EC000AA16002361F08D81805E883018F03D8164
:102ED000311129C0802F0E9448200E948B20DD20C4
:102EE00009F4D3C10E94971F80FDCFC1F701128260
:102EF0000E94911F0E94DA1DC7010E9456190E946C
:102F0000911F0F900F900F900F900F90DF91CF9126
:102F10001F910F91FF90EF90DF90BF90AF909F9027
:102F20008F900C94FC1D802F0E945920D6CF498190
:102F30004F70B42E5981507F503219F0B29480EF07
:102F4000B8228D81882369F0813029F1112369F13C
:102F5000002359F0F701858180FFA8CF8F7085830A
:102F600004C0112361F0011104C08B2D0E94F916D9
:102F7000B6CF8B2D0130D1F70E947520B0CF011153
:102F800006C00E9478208B2D0E940017A8CF013028
:102F900009F4A5CFF6CF112321F0063008F09FCF1A
:102FA000E4CF053008F09BCFEECF002361F38D8195
:102FB0000E94AA1694CF898186958695837069F0C0
:102FC000813009F08CCF8D8199819370111102C0ED
:102FD00090E080E00E94B51482CF8D81998193703A
:102FE000111102C090E080E00E949F1478CF8D8183
:102FF000112329F00E9405240E94EC2470CF0E9426
:103000006D24FACF8981837009F05FC0111167CFF9
:103010002D81229526952770220F220F8D818F708A
:1030200090E0B0E0A0E04C015D01022E04C0880CED
:10303000991CAA1CBB1C0A94D2F7FD8160E070E0C9
:10304000CB01F4FF0FC06FE070E080E090E004C0BF
:10305000660F771F881F991F2A95D2F76095709584
:103060008095909529812695269523702D83223071
:10307000B1F0233019F19B01AC01282939294A29E3
:103080005B2929833A834B835C833D8169817A8103
:103090008B819C813130B1F00E94671D20CF9B0154
:1030A000AC01282939294A295B2929833A834B8392
:1030B0005C83CA01B9010E94911D11CF0E94671D56
:1030C000C501B4010E943D1D0ACF8695112311F060
:1030D00089818170882309F402CF2D81229526955C
:1030E0002770220F220F8D818F7090E0B0E0A0E05A
:1030F0004C015D01022E04C0880C991CAA1CBB1C4B
:103100000A94D2F73D8160E070E0CB0134FF0FC03C
:103110006FE070E080E090E004C0660F771F881FCA
:10312000991F2A95D2F76095709580959095498161
:103130004695469543704D834230B1F0433019F1C6
:103140009B01AC01282939294A295B2929833A8323
:103150004B835C833D8169817A818B819C81313095
:10316000B1F00E946D1EBBCE9B01AC01282939290C
:103170004A295B2929833A834B835C83CA01B901BD
:103180000E94971EACCE0E946D1EC501B4010E9424
:10319000431EA5CE3D81323F09F447C080F4303F45
:1031A00079F1313FD9F1832F805E8031D0F0112346
:1031B00009F456C001117ACE89818F7133C04D81D7
:1031C000433FD1F1443F99F7112309F43FC089816E
:1031D0008F7189830E94DA1D63E089810E949B1FA1
:1031E0007ECE5D815F705D8389818F71112321F0B7
:1031F0000E94DA1D8D81BACE0E94FC1D8D81C4CE45
:10320000112341F0053008F06ACE89818F710E9448
:10321000211E65CE063008F062CEF7CF89818F710E
:10322000112339F00E94DA1D5ACE89818F71112342
:10323000C9F30E94FC1D53CE112329F089818F719F
:103240000E94C51D4CCE0E94BB1D49CE81E00E944C
:10325000A41F023008F443CE82E00E94A41F3FCE98
:103260000111A5CE89818F71E4CF49814F706D81A5
:10327000C7010E9493090E94B61C31CE49814F704C
:103280006D81C7010E94280B2ACE0F900F900F90DE
:103290000F900F90DF91CF911F910F91FF90EF90C2
:1032A000DF90BF90AF909F908F9008950F931F93E2
:1032B000CF93DF93EC018B819C81892B29F088814E
:1032C000998189238F3F29F4DF91CF911F910F912D
:1032D0000895CE010E94BE098823B1F368817981E7
:1032E0008A810E94671F8C010E94C11E0E94321DAC
:1032F000B801CE01DF91CF911F910F910C94071768
:103300000E9461200E9472200E9434200E948B2023
:103310000E94DD250E94EC2490E080E00E949F1432
:1033200090E080E00C94B5140E9450200C94801919
:103330000E945B1F282F892F82958F70903C80F40C
:103340008A30B0F4843020F4823090F480E0089524
:103350008630E1F781E0203E88F0213FB9F70EC0CA
:103360008C3011F08F3091F793FB882780F9089506
:1033700081E0203F39F018F4203E40F70895243FC3
:1033800029F7FCCF0895CF93DF9300D000D00F92A0
:10339000CDB7DEB70F900F900F900F900F90DF9189
:1033A000CF910895CF93DF9300D000D000D0CDB758
:1033B000DEB726960FB6F894DEBF0FBECDBFDF9105
:1033C000CF9108951F93CF93DF93E091BE0116E054
:1033D0008091BF018E1304C0DF91CF911F9108959A
:1033E000CE2FD0E01E9FF0011124E054FE4F40810B
:1033F000518162817381848195810E94D219FE017D
:103400003196E770E5CF4091F0015091F101609164
:10341000F2017091F3018091F4019091F5010C9407
:10342000D2191F93CF93DF938091F501807FC1F470
:103430008091F2018823A1F08091BE01C091BF016B
:103440006091F0017091F1014091F3015091F4010C
:10345000D62FD723DA01A095B09516E0C81304C083
:10346000DF91CF911F91089590E04115510511F022
:10347000DF3F31F401968770F1CF2A0F3B1F17C051
:10348000189FF001199FF00D1124E054FE4F218187
:103490002713F0CF20812613EDCF22812111EACF0F
:1034A000238134812417350740F3241B350B283C36
:1034B000310500F72091F5012F7020612093F5016F
:1034C00026E0289FF001299FF00D1124EB53FE4FB9
:1034D00080818F708061808380EF91E00E94561917
:1034E000DF91CF911F910C94E2199F92AF92BF92FE
:1034F000CF92DF92EF92FF920F931F93CF93DF93C0
:10350000CDB7DEB72B970FB6F894DEBF0FBECDBF99
:103510008C0185E0F801DE01179601900D928A95E5
:10352000E1F7D8014C9111965C9111971296EC90AD
:1035300012978091F3019091F401009709F46BC107
:103540002091F0013091F101632F62236F3F09F464
:1035500062C11396CD90DC909090F201992009F40D
:10356000F8C0C816D90608F43FC0F601E81BF90BED
:10357000CF01FF24F394883C910508F0F12C80EFF3
:10358000A82E81E0B82E8091F501982F907FFF2022
:1035900009F4B7C0911180C0FE2C35132AC0241342
:1035A00028C0E11026C08F7080618093F5010E94D1
:1035B000031AC5010E9456198091F501D80115968C
:1035C0008C938F2D2B960FB6F894DEBF0FBECDBF18
:1035D000DF91CF911F910F91FF90EF90DF90CF90EF
:1035E000BF90AF909F900895809590958C0D9D1DF4
:1035F000C0CFCD2829F0842F85238F3F09F019C132
:1036000080E0B82FB170DB2EE091BE012091BF01A8
:1036100036E080FD1CC0EE20A1F28091F5018160B2
:103620008093F501F12CCDCF8E2F90E03E9FF001DD
:103630001124E054FE4F6181651306C0608164135C
:1036400003C062816E11E7CFFC013196E770E2138F
:10365000EBCF4F8358878F8198850E945B1F292F5E
:1036600022952F70903260F0225F2F70223078F414
:103670009F7051F0F8019581907F31F4D12C0AC0F0
:103680009F7011F08823D1F3805E8830B8F3C801B1
:103690000E945619FD2C95CF351306C0241304C083
:1036A000D801EE2009F47BC04F8358878F8198851D
:1036B0000E949819882309F4B8C0EE2009F4B5C017
:1036C0008091F501803270F02091F0013091F1018C
:1036D0003A8329831B82DD82CC828E83CE010196C0
:1036E0000E94561986E0F801A0EFB1E001900D921A
:1036F0008A95E1F70E94111A0E94031AFF24F3949D
:1037000060CF911113C07C2DDB86CA866E2D8B8510
:103710000E94C31980EF91E00E94561986E0F501DE
:1037200011928A95E9F70E94031A4BCF3513BCCF4B
:103730002413BACFE110B8CFD80115968C93C801E5
:103740000E94561986E0F50111928A95E9F7F92C45
:1037500038CFC816D90688F1B601681B790BCB01A2
:10376000F12C883C910508F047C0FE2CEE2009F4AE
:103770005CC0351330C024132EC08091F50180FD4C
:1037800021C0982F907FF1F0D80115968C93159752
:10379000903F39F0982F907F905F8F70892B15960E
:1037A0008C93C8010E94561986E0F801A0EFB1E0A1
:1037B00001900D928A95E1F7B6CF809590958C0D8A
:1037C0009D1DCECF86E0F801A0EFB1E001900D92F3
:1037D0008A95E1F7F6CE4F8358878F8198850E94AE
:1037E000981981117FCF8091F50181608093F50157
:1037F000C8010E945619E5CE7C2DDB86CA866E2D47
:103800008B850E94C31986E0E0EFF1E0DF011D9295
:103810008A95E9F788CFEE2041F04F8358878F8152
:1038200098850E94981981115DCFC8010E94561990
:1038300065CF81E08E25E5CE1F93CF93DF93CDB783
:10384000DEB72C970FB6F894DEBF0FBECDBF4F8307
:10385000588769877A878B879C87CE0107960E9455
:10386000751A882369F08A859B85892B39F04F81E9
:103870005885842F85238F3F09F071C016E05FC003
:1038800086E0FE013796DE01119601900D928A9531
:10389000E1F78A859B85892B89F388859F81892318
:1038A0008F3F61F32091BF0130E0C901019687701D
:1038B00099274091BE014817190671F40E94941986
:1038C0001092BF011092BE0186E0E0EFF1E0DF014F
:1038D0001D928A95E9F7D2CF96E0929FD001939FEF
:1038E000B00D1124A054BE4FFE01319601900D92EF
:1038F0009A95E1F78093BF010E94E219BFCF819FA3
:10390000C001112480549E4F0E94751A8823E9F04B
:10391000E091BE011E9FF0011124E054FE4F408152
:10392000518162817381848195810E94D219809135
:10393000BE0190E00196877099278093BE01809127
:10394000BE019091BF018913DACF2C960FB6F8947F
:10395000DEBF0FBECDBFDF91CF911F910895698566
:103960007A858B859C850E94D21988CFEF92FF9231
:103970000F931F93CF93DF938C01892B89F0F12C48
:10398000EE24E394E8012196F8018491843709F448
:1039900057C0A0F4823009F43EC048F48130D1F021
:1039A000DF91CF911F910F91FF90EF9008959CEFC1
:1039B000980F9037A8F70E94CE150AC0853709F4F2
:1039C0004CC09CE7980F903758F78F770E94AA1643
:1039D0008E0116C00E5F1F4FFE01849190E2980F7A
:1039E000983060F48770FE2D01C0FF0F8A95EAF7CA
:1039F0008F2F0E9464200E948B2002C00E94CE154F
:103A00008F2D815008F4BECFEFE9FFE03197F1F739
:103A100000C00000F6CF0E5F1F4FFE01849190E2C0
:103A2000980F983050F48770FE2D01C0FF0F8A95D3
:103A3000EAF78F2F0E946A20DECF0E94AA16E0CFFD
:103A40000E5F1F4FFE01C491C150D0F28FE99FE07D
:103A50000197F1F700C00000F7CF0E5F1F4FFE0186
:103A6000F490CECF08956093450270934602809300
:103A70004702909348020C948019CF93DF9300D0B3
:103A800000D0CDB7DEB769837A838B839C83809126
:103A9000450290914602A0914702B09148022981C7
:103AA0003A814B815C81822B932BA42BB52B809385
:103AB000450290934602A0934702B09348020F90AC
:103AC0000F900F900F90DF91CF910C948019CF93AE
:103AD000DF9300D000D0CDB7DEB769837A838B83C4
:103AE0009C838091450290914602A0914702B0913B
:103AF000480229813A814B815C8182239323A4234C
:103B0000B5238093450290934602A0934702B09359
:103B100048020F900F900F900F90DF91CF910C946F
:103B20008019CF93DF9300D000D0CDB7DEB7698383
:103B30007A838B839C838091450290914602A09169
:103B40004702B091480229813A814B815C818227EA
:103B50009327A427B5278093450290934602A0930C
:103B60004702B09348020F900F900F900F90DF9193
:103B7000CF910C948019109241021092420210923F
:103B80004302109244020C94801941E050E060E03E
:103B900070E004C0440F551F661F771F8A95D2F747
:103BA0004093410250934202609343027093440257
:103BB0000C948019282F81E090E0A0E0B0E004C0D0
:103BC000880F991FAA1FBB1F2A95D2F74091410267
:103BD000509142026091430270914402842B952BD4
:103BE000A62BB72B8093410290934202A0934302ED
:103BF000B09344020C94801941E050E060E070E022
:103C000004C0440F551F661F771F8A95D2F7409551
:103C10005095609570958091410290914202A091DB
:103C20004302B091440284239523A623B7238093B3
:103C3000410290934202A0934302B09344020C9439
:103C40008019282F81E090E0A0E0B0E004C0880F48
:103C5000991FAA1FBB1F2A95D2F74091410250918C
:103C60004202609143027091440284279527A6275F
:103C7000B7278093410290934202A0934302B093EE
:103C800044020C948019CF93DF9300D000D0CDB7BD
:103C9000DEB769837A838B839C8380914102909104
:103CA0004202A0914302B091440229813A814B81A2
:103CB0005C81822B932BA42BB52B80934102909394
:103CC0004202A0934302B09344020F900F900F90D2
:103CD0000F90DF91CF910C948019CF93DF9300D098
:103CE00000D0CDB7DEB769837A838B839C838091C4
:103CF000410290914202A0914302B0914402298175
:103D00003A814B815C8182239323A423B523809342
:103D1000410290934202A0934302B09344020F9059
:103D20000F900F900F90DF91CF910C948019CF934B
:103D3000DF9300D000D0CDB7DEB769837A838B8361
:103D40009C838091410290914202A0914302B091E4
:103D5000440229813A814B815C8182279327A427E1
:103D6000B5278093410290934202A0934302B093FF
:103D700044020F900F900F900F90DF91CF910C9411
:103D800080190895E82F23E1929FE00D11248E2FD2
:103D9000877041E001C0440F8A95EAF7E695E69501
:103DA000E69585E0E89FF0011124EA50FE4F30E0EF
:103DB00020E070E05191DF011197CB01022E02C08B
:103DC000969587950A94E2F78170819585278423DB
:103DD00085278C932F5F3F4F2530310559F7089584
:103DE000E82F23E1929FE00D11249E2F9770E69516
:103DF000E695E69585E0E89FF0011124EA50FE4F34
:103E000050E040E080E0219130E0092E02C036957C
:103E100027950A94E2F721703327042E01C0220F60
:103E20000A94EAF7822B4F5F5F4F4530510559F7EF
:103E30000895BF92CF92DF92EF92FF920F931F935C
:103E4000CF93DF938C01C0904102D0904202E0906A
:103E50004302F09044028091450290914602A09165
:103E60004702B0914802C82AD92AEA2AFB2ACFE1A0
:103E7000D0E0BC2ED701C6010C2E04C0B695A79584
:103E8000979587950A94D2F780FD0EC0219788F701
:103E9000B12C8B2DDF91CF911F910F91FF90EF905F
:103EA000DF90CF90BF900895B8018C2F0E94450BF2
:103EB000019761F3EECFCF93DF93D82FC92F0E94E4
:103EC000191F6D2F7C2FDF91CF910C94450B1F9301
:103ED000CF93DF93162FD72F9091BD01992339F0FF
:103EE000862F972FDF91CF911F910C945B1F882312
:103EF00091F0862F972F0E94191FC82F682F812FAE
:103F00009D2F0E94C21E612F7D2F8C2FDF91CF919C
:103F10001F910C94450B862F972F0E94F01EC82FDF
:103F2000F2CF809149028595859585950895809178
:103F300049028770089598E0899F90011124622BAF
:103F4000609349020C94DA1D90914902809589236F
:103F500080934902282F277061F4282F082E000C27
:103F6000330B9217130629F08595859585950C944A
:103F7000FC1D089590914902977081E009F480E05A
:103F80000895909113019923E1F09091D90397FF3F
:103F900018C0E82FE695E695E695EF3139F12091C6
:103FA000010130910201E20FF32FF11D877021E032
:103FB00030E001C0220F8A95EAF78181822B81834C
:103FC00008952091010130910201F90132969FEF8D
:103FD00040E05191851751F09F3F19F4511101C0F4
:103FE000942F4F5F4E31A9F79F3F09F40895290F91
:103FF000311D97FD3A95F90182830895909113013F
:10400000992301F19091D90397FF1CC0E82FE69501
:10401000E695E695EF3139F12091010130910201E9
:10402000E20FF32FF11D877021E030E0A90102C0FB
:10403000440F551F8A95E2F7CA0180959181892323
:10404000818308952091010130910201F901329696
:10405000205E3F4F9191891303C0DF0111971C929D
:10406000E217F307B9F7089581E090E0E0910101CC
:10407000F0910201E80FF91F10820196803291053C
:10408000A9F7089590916D02982B90936D02089571
:10409000982F909580916D02892380936D020895E9
:1040A00010926D02089590916C02982B90936C027F
:1040B0000895982F909580916C02892380936C02CB
:1040C000089510926C02089590916B02982B909332
:1040D0006B020895982F909580916B0289238093AD
:1040E0006B02089510926B02089580934A0208951E
:1040F00010924A0208952091010130910201F901C4
:104100003196205E3F4F80E0919191118F5FE217D1
:10411000F307D1F70895E0910101F0910201809138
:104120006D028083E0910101F09102018081909104
:104130006C02892B8083E0910101F0910201808162
:1041400090916B02892B808390914A02992361F0B0
:10415000E0910101F09102018081892B80830E940E
:104160007B20811110924A028091010190910201FD
:104170000C9489146DEE7EEF90E080E00E946A2E30
:1041800060E082E090E00E944C2E60E083E090E0EE
:104190000E944C2E60E084E090E00E944C2E60E093
:1041A00085E090E00E944C2E40E050E0BA0188E0AB
:1041B00090E00C945E2E90E080E00E94462E9C01E0
:1041C00081E02D3E3E4F09F080E0089582E090E0CE
:1041D0000C94382E682F82E090E00C944C2E83E0F3
:1041E00090E00C94382E682F83E090E00C944C2ED5
:1041F00084E090E00C94382E682F84E090E00C94DA
:104200004C2E8091DF03843039F110926F0288E1E7
:1042100090E020E40FB6F894A895809360000FBE5C
:104220002093600080E00E94260B83B7817F84602A
:1042300083BF83B7816083BF7894889583B78E7F6F
:1042400083BF0FB6F894A895809160008861809331
:104250006000109260000FBE089508950895CF93F6
:10426000DF9300D000D00F92CDB7DEB70E942D2192
:104270000E94D40D0E942E211D828D810E94CD0EA0
:10428000672B682B692B71F48D818F5F8D8386304E
:10429000A1F780E00F900F900F900F900F90DF919B
:1042A000CF91089581E0F6CF0E9494190E947D1469
:1042B0000C94260B1F921FB61F9211248F939F936D
:1042C000AF93BF9380916F02811113C08091D5038A
:1042D0009091D603A091D703B091D8034196A11D28
:1042E000B11D8093D5039093D603A093D703B093C9
:1042F000D803BF91AF919F918F911F901FBE1F90C8
:10430000189582E084BD93E095BD9AEF97BD8093A8
:104310006E0008952FB7F8948091D5039091D6033D
:10432000A091D703B091D8032FBF0895CF92DF9209
:10433000EF92FF929C014FB7F8948091D503909132
:10434000D603A091D703B091D8034FBF6C017D0174
:10435000EE24FF24A90170E060E0C416D506E6064D
:10436000F70638F0821B930BFF90EF90DF90CF9011
:1043700008950197F7CF1F921FB61F9211248F93B4
:104380009F93AF93BF938091D5039091D603A09153
:10439000D703B091D8030196A11DB11D8093D50319
:1043A0009093D603A093D703B093D803BF91AF9156
:1043B0009F918F911F901FBE1F9018950E94D32927
:1043C000F8942FEF87EA91E6215080409040E1F782
:1043D00000C0000087E090EBDC018093E80390933D
:1043E000E903A093EA03B093EB0388E19CE00FB6E6
:1043F000F894A895809360000FBE90936000FFCF63
:10440000AF92BF92CF92DF92EF92FF920F931F93E2
:10441000CF93C0E0A82EB12C8C2F0E94CD0E6B0143
:104420007C0110E000E0D701C601002E04C0B69563
:10443000A795979587950A94D2F780FF13C0602FB0
:104440007C2F80E00E94290BA816B90659F481E060
:10445000CF911F910F91FF90EF90DF90CF90BF9081
:10446000AF9008950F5F1F4F03311105E1F6CF5F45
:10447000C63091F680E0ECCFCF93C82F8CE20E943B
:104480000022882321F08C2FCF910C94002280E011
:10449000CF910895CF93DF9300D000D0CDB7DEB792
:1044A0000E94DB20811102C00E94BA2095E6998308
:1044B00008C00E94D40D8FE39CE90197F1F700C07A
:1044C0000000A981A150A983A111F3CF89E20E9424
:1044D0003C22811110C18AE20E943C2281110E947B
:1044E000BA2085E00E943C2281110E94DE210E94B8
:1044F000E62080936E0287E00E943C22882371F0C0
:104500008BE10E943C22882309F4D1C090916E0275
:10451000892F8D7F91FF826080936E0280916E0261
:104520000E94EA200E94F82090E09093DA038093A2
:10453000D90380EE0E943C22882341F09091D90358
:10454000892F8E7F90FF81608093D90389E30E9439
:104550003C22882341F09091D903892F8D7F91FFD0
:1045600082608093D90382EE0E943C22882341F02E
:104570009091D903892F8B7F92FF84608093D90318
:1045800086EE0E943C22882341F09091D903892F26
:10459000877F93FF88608093D90383EE0E943C223B
:1045A000882341F09091D903892F8F7E94FF8061F9
:1045B0008093D90385E30E943C22882341F09091A7
:1045C000D903892F8F7D95FF80628093D90381E382
:1045D0000E943C22882341F09091D903892F8F7B40
:1045E00096FF80648093D90381E10E943C22882356
:1045F00041F09091D903892F97FB87F980588093D8
:10460000D9038091D9030E94FC2087E20E943C22BA
:1046100089838EE10E943C22882319F0B981B2601F
:10462000B9838FE10E943C22882319F029812460FC
:10463000298380E20E943C22882319F03981386066
:10464000398381E20E943C22882319F0498140612C
:10465000498382E20E943C22882319F059815062EA
:10466000598383E20E943C22882319F08981806467
:10467000898384E20E943C228823B1F19981906869
:10468000998389810E94F3203981232F30E050E003
:1046900040E029833A834B835C83CA01B9010F90C0
:1046A0000F900F900F90DF91CF910C94331D8EE0FF
:1046B0000E943C22882339F090916E02892F8B7FD3
:1046C00092FF846029CF80E10E943C2290916E028B
:1046D000882329F0892F877F93FF88601DCF892F3A
:1046E0008E7F90FF816018CFA981A111CACF0E944F
:1046F000EF20282FCBCF0F900F900F900F90DF91CE
:10470000CF9108958091720280FF12C060910601DE
:1047100085E0689FB001112475956795759567953B
:1047200060387105A8F561157105A1F1862F08950E
:1047300081FF09C06091060185E0689FB0011124E6
:1047400075956795EDCF6091060182FD0AC0809155
:1047500073028823D1F090910501609106018917B9
:1047600028F085E0689FB0011124DACF869FB00160
:10477000112485E0869F9001879F300D1124692FB9
:1047800070E0C9010E941B2ECBCF65E070E0CECF58
:104790008FE7089581E008958091720280FF0CC038
:1047A0006091040170E07595679575956795611541
:1047B000710549F1862F089581FF06C060910401BB
:1047C00070E075956795F3CF6091040182FD0BC091
:1047D000909173029923A1F06091030180910401EB
:1047E000961738F0682F70E06038710500F38FE796
:1047F0000895899FC001112470E00E941B2EF4CF00
:1048000061E070E0D7CF81E00895803F31F40E94ED
:1048100082238195809376020895813F19F40E9446
:104820008223F8CF823F31F40E94822381958093C6
:1048300075020895833F19F40E948223F8CF893FBF
:1048400029F40E94CC238093770208958A3F21F4B3
:104850000E94CC238195F7CF8B3F31F40E94CC236B
:1048600081958093780208958C3F19F40E94CC239F
:10487000F8CF843F31F48091740281608093740298
:104880000895853F21F4809174028260F7CF863FBE
:1048900021F4809174028460F1CF873F21F48091EC
:1048A00074028860EBCF883F21F4809174028061AC
:1048B000E5CF8D3F31F48091720281608093720266
:1048C00008958E3F21F4809172028260F7CF8F3F6E
:1048D000B9F7809172028460F1CF90917502803FA8
:1048E00041F48091760287FD10927602992371F04F
:1048F0000895813F29F4809176021816ACF3F6CF23
:10490000823F81F497FFF2CF109275028091760278
:1049100090917702892B90917802892B49F7109218
:1049200073020895833F19F4191674F3DFCF893F9A
:1049300039F4809177021816CCF610927702D6CF10
:104940008A3F29F48091770287FFD0CFF6CF8B3F43
:1049500039F48091780287FFC9CF10927802C6CFD0
:104960008C3F29F4809178021816BCF3BFCF843FA6
:1049700031F4809174028E7F80937402B7CF853FAB
:1049800021F4809174028D7FF7CF863F21F48091CE
:1049900074028B7FF1CF873F21F480917402877F6F
:1049A000EBCF883F21F4809174028F7EE5CF8D3F5D
:1049B00031F4809172028E7F8093720297CF8E3F86
:1049C00021F4809172028D7FF7CF8F3F09F08ECF57
:1049D000809172028B7FF0CF84E792E00E94941462
:1049E0000E948A21909371028093700208951F9310
:1049F000CF93DF9300D000D000D0CDB7DEB7809149
:104A00007002909171020E949621AC018091730214
:104A10002091070130E0811106C0209108019AE041
:104A2000299F900111244217530788F020917502A5
:104A3000A0917602A98310917702B0917802BE838B
:104A400021110FC09A2F912B9B2B09F0B2C02696F3
:104A50000FB6F894DEBF0FBECDBFDF91CF911F918F
:104A600008958F3F19F08F5F80937302121624F41C
:104A70000E948223809375028091750287FF05C092
:104A80000E9482238195809375022981121624F455
:104A90000E948223809376028091760287FF05C070
:104AA0000E948223819580937602809175028823EB
:104AB00009F455C0309176023D83332309F44FC089
:104AC000282F880F330B440B550B29833A834B83D4
:104AD0005C83CA01B9010E940E2D23E333E343E353
:104AE0005FE369837A838B839C8369817A818B817D
:104AF0009C810E94722D69837A838B839C83698158
:104B00007A818B819C810E94D62C609375028D8165
:104B1000082E000C990BAA0BBB0B89839A83AB83DD
:104B2000BC83BC01CD010E940E2D23E333E343E39C
:104B30005FE369837A838B839C8369817A818B812C
:104B40009C810E94722D69837A838B839C83698107
:104B50007A818B819C810E94D62C609376021116FB
:104B600024F40E94CC23809377028091770287FF00
:104B700005C00E94CC238195809377029E811916EF
:104B800024F40E94CC23809378028091780287FFDE
:104B900005C00E94CC2381958093780226960FB69B
:104BA000F894DEBF0FBECDBFDF91CF911F910C9463
:104BB000EC248F3F09F057CF68CF85E0E4E7F2E0BF
:104BC000DF011D928A95E9F710927302109272022A
:104BD0000895809199020895CF93DF9300D00F92AA
:104BE000CDB7DEB72091DF03243019F523E0298308
:104BF0008A839B832093E9008FEF9091E800815096
:104C000095FD06C095ED9A95F1F700008111F5CF5D
:104C10008091E80085FF0DC050E040E063E070E067
:104C2000CE0101960E944B288091E8008E778093F8
:104C3000E8000F900F900F90DF91CF910895CF93E0
:104C4000DF9300D00F92CDB7DEB79C018091DF03D8
:104C5000843031F582E08983205831093B832A83EF
:104C600083E08093E9008FEF9091E800815095FDFB
:104C700006C095ED9A95F1F700008111F5CF80916E
:104C8000E80085FF0DC050E040E063E070E0CE0139
:104C900001960E944B288091E8008E778093E8006F
:104CA0000F900F900F90DF91CF9108952091DF0327
:104CB0002430F1F422E02093E9002FEF3091E80056
:104CC000215035FD06C035ED3A95F1F70000211170
:104CD000F5CF2091E80025FF0BC050E040E065E0F3
:104CE00070E00E944B288091E8008E778093E80066
:104CF0000895CF93DF93D82FC92F8091DF0384309D
:104D0000F1F4909113019923E9F09091D90397FF61
:104D100019C08093E9008FEF9091E800815095FDD4
:104D200006C095E19A95F1F700008111F5CF8091C9
:104D3000E80050E040E060E270E085FD1AC0DF91DD
:104D4000CF91089581E08093E9008FEF9091E80082
:104D5000815095FD06C095ED9A95F1F700008111FF
:104D6000F5CF8091E80085FFEACF50E040E068E0B1
:104D700070E08D2F9C2F0E944B288091E8008E7749
:104D80008093E80080E2ED2FFC2FA9E7B2E00190CC
:104D90000D928A95E1F7D3CF8091DE03811109C08E
:104DA0000E94D3290E94352A8091E200846080937A
:104DB000E20008951092DE030895089508950C947A
:104DC000542142E061EC81E00E944F2942E061EC15
:104DD00082E00E944F2942E061EC83E00E944F296B
:104DE00042E261EC84E00C944F298091E103893028
:104DF00089F148F4823009F494C0833009F44FC03B
:104E0000813041F008958A3009F47BC08B3009F479
:104E100061C008958091E003813A09F03FC080911C
:104E2000E800877F8093E8008091E4039091E50398
:104E3000892B61F460E289E792E070E00E949A2891
:104E40008091E8008B778093E800089560E090E01F
:104E500080E0F3CF8091E003813201F58091E4039B
:104E60009091E503009711F00397C1F48091E80059
:104E7000877F8093E8008091E80082FF0BC08091DB
:104E8000F100809399028091E8008B778093E8008D
:104E90000C9483298091DF038111EDCF08958091D7
:104EA000E003813AD9F78091E4039091E503892BDF
:104EB000A9F78091E800877F8093E8008091E8005F
:104EC00080FFFCCF809113018093F1008091E80076
:104ED0008E77DCCF8091E003813201F78091E4038B
:104EE0009091E503892BD1F68091E800877F80932C
:104EF000E8000E9483298091E203809313010C94BF
:104F000094198091E003813249F68091E800877F0F
:104F10008093E8000E9483298091E30380939A02A2
:104F200008958091E003813A09F0B8CF8091E800BC
:104F3000877F8093E8008091E80080FFFCCF80911C
:104F40009A02C2CF84B7877F84BF0FB6F894A89522
:104F500080916000886180936000109260000FBEB5
:104F600080E880936100109261000E94CC140E943E
:104F7000D3290E94352A8091E20084608093E20068
:104F800078940E94BB2C0E94CE1489E091E00E948C
:104F900078148091DF03853029F00E94D6140E9496
:104FA0004514F7CF0E9401218091DD03882389F306
:104FB0000E942F21882369F30E943528EACF9C01A3
:104FC000DA01892F992783309105C1F068F4813087
:104FD000910509F445C0029761F48DE690E025E162
:104FE00031E12D933C93089581329105E1F0829750
:104FF00039F190E080E030E020E0F3CFC90199275B
:10500000213059F08230910559F0E1E1F1E1892B2D
:1050100081F7849190E09F01E4CFE9EFF0E1F9CFCF
:10502000E5EEF0E1F6CF643020F7E62FF0E0EE0F8A
:10503000FF1FE75CFE4F2081318189E090E0D1CFF6
:105040006430B8F670E0FB01EE0FFF1FEF5CFE4F1F
:1050500020813181635D7E4FFB01808190E0C1CF73
:1050600082E190E022E831E1BCCF84E189BD86E1B4
:1050700089BD09B400FEFDCF8091D8008F7D80935B
:10508000D8008091E00082608093E0008091E00091
:1050900081FDFCCF0895AF92BF92CF92DF92FF9235
:1050A0000F931F93CF93DF936C01EB018A010E9452
:1050B000A229F82E811123C00115110539F0F8013C
:1050C00080819181C81BD90BC80ED91EB12CA12C8F
:1050D0002097A9F08091E80085FD22C08091E8002A
:1050E0008E778093E80001151105A1F0F801808109
:1050F0009181A80EB91EB182A08285E0F82E8F2D75
:10510000DF91CF911F910F91FF90DF90CF90BF90D3
:10511000AF9008950E94A2298823D1F2F82EEFCFF4
:10512000F60181916F018093F1002197FFEFAF1A93
:10513000BF0ACECFFC01CB012091E6033091E703FB
:105140002617370790F0009729F42091E8002E7772
:105150002093E80040E0009751F4411108C080918D
:10516000E80082FF31C080E00895C901F3CF2091AB
:10517000DF032223A9F12530A9F12091E80023FDC6
:105180002DC02091E80022FDEACF2091E80020FF09
:10519000E2CF2091F2003091F300009719F028300F
:1051A000310558F041E02830310509F040E0209108
:1051B000E8002E772093E800CECF41914093F10094
:1051C00001972F5F3F4FE9CF8091DF03882341F0A4
:1051D000853041F08091E80083FFC1CF81E00895E0
:1051E00082E0089583E00895FC01CB012091E6035D
:1051F0003091E7032617370790F0009729F42091A4
:10520000E8002E772093E80040E0009751F4411128
:1052100008C08091E80082FF32C080E00895C90193
:10522000F3CF2091DF032223B1F12530B1F120919A
:10523000E80023FD2EC02091E80022FDEACF209156
:10524000E80020FFE2CF2091F2003091F3000097B8
:1052500019F02830310558F041E02830310509F0C7
:1052600040E02091E8002E772093E800CECF4491D3
:105270004093F100319601972F5F3F4FE8CF809127
:10528000DF03882341F0853041F08091E80083FFFF
:10529000C0CF81E0089582E0089583E00895982FBB
:1052A000973028F08F708093E90081E00895909303
:1052B000E900242F762F50E0981731F07091EC0020
:1052C0002091ED005091F00021FD02C09F5FE8CFDA
:1052D0003091EB003E7F3093EB003091ED003D7F4D
:1052E0003093ED003091EB0031603093EB00709320
:1052F000EC002093ED005093F0002091EE0027FD8C
:10530000E5CF80E008958091E00387FF13C080918E
:10531000E80082FF06C08091E8008B778093E80068
:1053200004C08091DF038111F2CF08958091DF03E3
:105330008823D9F38091E80080FFF8CF8091E800BE
:105340008E77ECCF2091E4003091E50095E6A9013D
:105350002091EC00822F817020FF06C08091E80030
:1053600080FF06C080E008952091E80022FD1AC069
:105370008091DF03882389F0853089F08091EB00EC
:1053800085FD0FC02091E4003091E50042175307DE
:10539000F9F29150E1F684E0089582E0089583E007
:1053A000089581E008950E94442A0E944C2AE0EE6C
:1053B000F0E0808181608083E8EDF0E080818F778C
:1053C000808319BCA7EDB0E08C918E7F8C93808197
:1053D0008F7E80831092DE0308950F931F93CF93E7
:1053E000DF930E94442A0E944C2AC8EDD0E08881B5
:1053F0008F77888388818068888388818F7D888380
:10540000E7EDF0E080818068808319BC1092DF03B3
:105410001092DB031092DD031092DC0300EE10E02B
:10542000F80180818B7F808388818160888342E05E
:1054300060E080E00E944F29E1EEF0E080818E7F05
:105440008083E2EEF0E080818160808380818860EB
:105450008083F80180818E7F80838881806188834A
:10546000DF91CF911F910F910895E8EDF0E08081D9
:105470008F7E8083E7EDF0E080818160808381E032
:105480008093DE030C94ED29E8EDF0E080818C7FC1
:1054900080831092E20008951092DA001092E100E9
:1054A00008951F920F920FB60F9211240BB60F9210
:1054B0002F933F934F935F936F937F938F939F931C
:1054C000AF93BF93EF93FF938091E10082FF0BC0F6
:1054D0008091E20082FF07C08091E1008B7F809382
:1054E000E1000E94BA2C8091DA0080FF19C08091FF
:1054F000D80080FF15C08091DA008E7F8093DA009B
:105500008091D90080FF96C084E189BD86E189BD84
:1055100009B400FEFDCF81E08093DF030E94CC261A
:105520008091E10080FF19C08091E20080FF15C0EA
:105530008091E2008E7F8093E2008091E2008061A2
:105540008093E2008091D80080628093D80019BCDB
:1055500085E08093DF030E94DE268091E10084FFD6
:1055600029C08091E20084FF25C084E189BD86E1E5
:1055700089BD09B400FEFDCF8091D8008F7D809356
:10558000D8008091E1008F7E8093E1008091E2005D
:105590008F7E8093E2008091E20081608093E20040
:1055A0008091DB03882309F44BC084E08093DF0300
:1055B0000E94DF268091E10083FF29C08091E200F4
:1055C00083FF25C08091E100877F8093E10082E026
:1055D0008093DF031092DB038091E1008E7F809344
:1055E000E1008091E2008E7F8093E2008091E200F2
:1055F00080618093E20042E060E080E00E944F29F9
:105600008091F00088608093F0000E94DD26FF9179
:10561000EF91BF91AF919F918F917F916F915F912A
:105620004F913F912F910F900BBE0F900FBE0F9097
:105630001F90189519BC1092DF030E94DA2670CFD4
:105640008091E30087FD02C081E0B0CF83E0AECF60
:105650001F920F920FB60F9211240BB60F922F9339
:105660003F934F935F936F937F938F939F93AF93EA
:10567000BF93CF93DF93EF93FF93D091E900DF7057
:105680008091EC00C82FC17080FDC0E81092E90045
:105690008091F000877F8093F00078940E94702BB7
:1056A0001092E9008091F00088608093F000CD2B8B
:1056B000CF70C093E900FF91EF91DF91CF91BF913F
:1056C000AF919F918F917F916F915F914F913F919A
:1056D0002F910F900BBE0F900FBE0F901F9018953B
:1056E0001F93CF93DF93CDB7DEB7AA970FB6F89489
:1056F000DEBF0FBECDBF80EE93E0FC01019620918E
:10570000F100208323E0883E9207B9F70E94F52636
:105710008091E80083FF16C18091E0039091E1033E
:105720009A3008F00FC1E92FF0E0E355F14D0C94E9
:105730002F2E803881F0823809F004C18091E40373
:105740008F708093E9008091EB0085FB882780F9BA
:105750001092E90006C08091DC039091DD03911165
:1057600082609091E800977F9093E8008093F10029
:105770001092F1008091E8008E77E0C0882309F450
:10578000CEC0823009F0DEC08091E2038111D1C029
:105790008091E4038F7009F4D5C08093E9002091D3
:1057A000EB0020FFC6C0933031F48091EB008062A3
:1057B0008093EB00BEC09091EB0090619093EB0062
:1057C00021E030E001C0220F8A95EAF72093EA0039
:1057D0001092EA008091EB008860EACF8111B2C09C
:1057E0001091E2031F778091E3008078812B8093F2
:1057F000E3008091E800877F8093E8000E9483297E
:105800008091E80080FFFCCF8091E3008068809366
:10581000E30082E0111183E08093DF0393C080589E
:10582000823008F08FC08091E2039091E3038C3DB9
:1058300023E09207A1F583E08A838AE289834FB748
:10584000F894DE01139620E03EE051E2E32FF0E011
:1058500050935700E49120FF03C0E295EF703F5F43
:10586000EF708E2F90E0EA30C0F0C7968D939D9335
:105870002F5F243159F74FBF8091E800877F8093D5
:10588000E8006AE270E0CE0101960E949A288091B9
:10589000E8008B778093E80055C0C096E7CFAE0153
:1058A0004F5F5F4F6091E4030E94DF27BC01892BAB
:1058B00009F448C08091E800877F8093E8008981DF
:1058C0009A810E94F428E3CF8038E1F58091E800C6
:1058D000877F8093E8008091DB038093F1004ACFBB
:1058E000811130C09091E203923060F58091E80020
:1058F000877F8093E8009093DB030E948329809147
:10590000DB03882311F084E005C08091E30087FD6C
:10591000FACF81E08093DF030E94E12613C08091DB
:10592000E203813079F481E0933009F080E08093E4
:10593000DD031092E9008091E800877F8093E80002
:105940000E9483298091E80083FF0AC08091E800CB
:10595000877F8093E8008091EB0080628093EB006A
:10596000AA960FB6F894DEBF0FBECDBFDF91CF91E0
:105970001F9108950895CF938091DF038823A1F0AC
:10598000C091E900CF709091EC00892F817090FD5B
:1059900080E8C82B1092E9008091E80083FD0E9406
:1059A000702BCF70C093E900CF9108950E94DD2C39
:1059B0006894B1110C946C2D08950E94512D88F0BB
:1059C0009F5798F0B92F9927B751B0F0E1F0660FC3
:1059D000771F881F991F1AF0BA95C9F714C0B13004
:1059E00091F00E946B2DB1E008950C946B2D672F00
:1059F000782F8827B85F39F0B93FCCF38695779533
:105A00006795B395D9F73EF490958095709561951B
:105A10007F4F8F4F9F4F0895E89409C097FB3EF446
:105A200090958095709561957F4F8F4F9F4F9923EB
:105A3000A9F0F92F96E9BB279395F6958795779569
:105A40006795B795F111F8CFFAF4BB0F11F460FF29
:105A50001BC06F5F7F4F8F4F9F4F16C0882311F081
:105A600096E911C0772321F09EE8872F762F05C095
:105A7000662371F096E8862F70E060E02AF09A9530
:105A8000660F771F881FDAF7880F9695879597F925
:105A9000089557FD9058440F551F59F05F3F71F01E
:105AA0004795880F97FB991F61F09F3F79F0879585
:105AB0000895121613061406551FF2CF4695F1DF0E
:105AC00008C0161617061806991FF1CF869571059E
:105AD000610508940895E894BB2766277727CB01D2
